{
  "_format": "hh-sol-artifact-1",
  "contractName": "NftGenerator",
  "sourceName": "contracts/NftGenerator.sol",
  "abi": [
    {
      "inputs": [
        {
          "internalType": "address",
          "name": "_owner",
          "type": "address"
        },
        {
          "internalType": "string",
          "name": "_name",
          "type": "string"
        },
        {
          "internalType": "string",
          "name": "_symbol",
          "type": "string"
        }
      ],
      "stateMutability": "nonpayable",
      "type": "constructor"
    },
    {
      "anonymous": false,
      "inputs": [
        {
          "indexed": true,
          "internalType": "address",
          "name": "owner",
          "type": "address"
        },
        {
          "indexed": true,
          "internalType": "address",
          "name": "approved",
          "type": "address"
        },
        {
          "indexed": true,
          "internalType": "uint256",
          "name": "tokenId",
          "type": "uint256"
        }
      ],
      "name": "Approval",
      "type": "event"
    },
    {
      "anonymous": false,
      "inputs": [
        {
          "indexed": true,
          "internalType": "address",
          "name": "owner",
          "type": "address"
        },
        {
          "indexed": true,
          "internalType": "address",
          "name": "operator",
          "type": "address"
        },
        {
          "indexed": false,
          "internalType": "bool",
          "name": "approved",
          "type": "bool"
        }
      ],
      "name": "ApprovalForAll",
      "type": "event"
    },
    {
      "anonymous": false,
      "inputs": [
        {
          "indexed": true,
          "internalType": "address",
          "name": "previousOwner",
          "type": "address"
        },
        {
          "indexed": true,
          "internalType": "address",
          "name": "newOwner",
          "type": "address"
        }
      ],
      "name": "OwnershipTransferred",
      "type": "event"
    },
    {
      "anonymous": false,
      "inputs": [
        {
          "indexed": true,
          "internalType": "address",
          "name": "account",
          "type": "address"
        }
      ],
      "name": "RemovedController",
      "type": "event"
    },
    {
      "anonymous": false,
      "inputs": [
        {
          "indexed": true,
          "internalType": "address",
          "name": "account",
          "type": "address"
        }
      ],
      "name": "SetController",
      "type": "event"
    },
    {
      "anonymous": false,
      "inputs": [
        {
          "indexed": true,
          "internalType": "address",
          "name": "from",
          "type": "address"
        },
        {
          "indexed": true,
          "internalType": "address",
          "name": "to",
          "type": "address"
        },
        {
          "indexed": true,
          "internalType": "uint256",
          "name": "tokenId",
          "type": "uint256"
        }
      ],
      "name": "Transfer",
      "type": "event"
    },
    {
      "inputs": [
        {
          "internalType": "address",
          "name": "to",
          "type": "address"
        },
        {
          "internalType": "uint256",
          "name": "tokenId",
          "type": "uint256"
        }
      ],
      "name": "approve",
      "outputs": [],
      "stateMutability": "nonpayable",
      "type": "function"
    },
    {
      "inputs": [
        {
          "internalType": "address",
          "name": "owner",
          "type": "address"
        }
      ],
      "name": "balanceOf",
      "outputs": [
        {
          "internalType": "uint256",
          "name": "",
          "type": "uint256"
        }
      ],
      "stateMutability": "view",
      "type": "function"
    },
    {
      "inputs": [],
      "name": "baseURI",
      "outputs": [
        {
          "internalType": "string",
          "name": "",
          "type": "string"
        }
      ],
      "stateMutability": "view",
      "type": "function"
    },
    {
      "inputs": [],
      "name": "currentId",
      "outputs": [
        {
          "internalType": "uint256",
          "name": "",
          "type": "uint256"
        }
      ],
      "stateMutability": "view",
      "type": "function"
    },
    {
      "inputs": [
        {
          "internalType": "uint256",
          "name": "tokenId",
          "type": "uint256"
        }
      ],
      "name": "getApproved",
      "outputs": [
        {
          "internalType": "address",
          "name": "",
          "type": "address"
        }
      ],
      "stateMutability": "view",
      "type": "function"
    },
    {
      "inputs": [
        {
          "internalType": "address",
          "name": "owner",
          "type": "address"
        },
        {
          "internalType": "address",
          "name": "operator",
          "type": "address"
        }
      ],
      "name": "isApprovedForAll",
      "outputs": [
        {
          "internalType": "bool",
          "name": "",
          "type": "bool"
        }
      ],
      "stateMutability": "view",
      "type": "function"
    },
    {
      "inputs": [],
      "name": "maxBatch",
      "outputs": [
        {
          "internalType": "uint256",
          "name": "",
          "type": "uint256"
        }
      ],
      "stateMutability": "view",
      "type": "function"
    },
    {
      "inputs": [
        {
          "internalType": "address",
          "name": "_acc",
          "type": "address"
        },
        {
          "internalType": "uint256",
          "name": "_times",
          "type": "uint256"
        }
      ],
      "name": "mintBatch",
      "outputs": [],
      "stateMutability": "nonpayable",
      "type": "function"
    },
    {
      "inputs": [],
      "name": "name",
      "outputs": [
        {
          "internalType": "string",
          "name": "",
          "type": "string"
        }
      ],
      "stateMutability": "view",
      "type": "function"
    },
    {
      "inputs": [],
      "name": "owner",
      "outputs": [
        {
          "internalType": "address",
          "name": "",
          "type": "address"
        }
      ],
      "stateMutability": "view",
      "type": "function"
    },
    {
      "inputs": [
        {
          "internalType": "uint256",
          "name": "tokenId",
          "type": "uint256"
        }
      ],
      "name": "ownerOf",
      "outputs": [
        {
          "internalType": "address",
          "name": "",
          "type": "address"
        }
      ],
      "stateMutability": "view",
      "type": "function"
    },
    {
      "inputs": [
        {
          "internalType": "address",
          "name": "_account",
          "type": "address"
        }
      ],
      "name": "removeController",
      "outputs": [],
      "stateMutability": "nonpayable",
      "type": "function"
    },
    {
      "inputs": [],
      "name": "renounceOwnership",
      "outputs": [],
      "stateMutability": "nonpayable",
      "type": "function"
    },
    {
      "inputs": [
        {
          "internalType": "address",
          "name": "from",
          "type": "address"
        },
        {
          "internalType": "address",
          "name": "to",
          "type": "address"
        },
        {
          "internalType": "uint256",
          "name": "tokenId",
          "type": "uint256"
        }
      ],
      "name": "safeTransferFrom",
      "outputs": [],
      "stateMutability": "nonpayable",
      "type": "function"
    },
    {
      "inputs": [
        {
          "internalType": "address",
          "name": "from",
          "type": "address"
        },
        {
          "internalType": "address",
          "name": "to",
          "type": "address"
        },
        {
          "internalType": "uint256",
          "name": "tokenId",
          "type": "uint256"
        },
        {
          "internalType": "bytes",
          "name": "_data",
          "type": "bytes"
        }
      ],
      "name": "safeTransferFrom",
      "outputs": [],
      "stateMutability": "nonpayable",
      "type": "function"
    },
    {
      "inputs": [
        {
          "internalType": "address",
          "name": "operator",
          "type": "address"
        },
        {
          "internalType": "bool",
          "name": "approved",
          "type": "bool"
        }
      ],
      "name": "setApprovalForAll",
      "outputs": [],
      "stateMutability": "nonpayable",
      "type": "function"
    },
    {
      "inputs": [
        {
          "internalType": "string",
          "name": "_newUri",
          "type": "string"
        }
      ],
      "name": "setBaseURI",
      "outputs": [],
      "stateMutability": "nonpayable",
      "type": "function"
    },
    {
      "inputs": [
        {
          "internalType": "address",
          "name": "_account",
          "type": "address"
        }
      ],
      "name": "setController",
      "outputs": [],
      "stateMutability": "nonpayable",
      "type": "function"
    },
    {
      "inputs": [
        {
          "internalType": "bytes4",
          "name": "interfaceId",
          "type": "bytes4"
        }
      ],
      "name": "supportsInterface",
      "outputs": [
        {
          "internalType": "bool",
          "name": "",
          "type": "bool"
        }
      ],
      "stateMutability": "view",
      "type": "function"
    },
    {
      "inputs": [],
      "name": "symbol",
      "outputs": [
        {
          "internalType": "string",
          "name": "",
          "type": "string"
        }
      ],
      "stateMutability": "view",
      "type": "function"
    },
    {
      "inputs": [
        {
          "internalType": "uint256",
          "name": "index",
          "type": "uint256"
        }
      ],
      "name": "tokenByIndex",
      "outputs": [
        {
          "internalType": "uint256",
          "name": "",
          "type": "uint256"
        }
      ],
      "stateMutability": "view",
      "type": "function"
    },
    {
      "inputs": [
        {
          "internalType": "address",
          "name": "owner",
          "type": "address"
        },
        {
          "internalType": "uint256",
          "name": "index",
          "type": "uint256"
        }
      ],
      "name": "tokenOfOwnerByIndex",
      "outputs": [
        {
          "internalType": "uint256",
          "name": "",
          "type": "uint256"
        }
      ],
      "stateMutability": "view",
      "type": "function"
    },
    {
      "inputs": [
        {
          "internalType": "uint256",
          "name": "tokenId",
          "type": "uint256"
        }
      ],
      "name": "tokenURI",
      "outputs": [
        {
          "internalType": "string",
          "name": "",
          "type": "string"
        }
      ],
      "stateMutability": "view",
      "type": "function"
    },
    {
      "inputs": [],
      "name": "totalSupply",
      "outputs": [
        {
          "internalType": "uint256",
          "name": "",
          "type": "uint256"
        }
      ],
      "stateMutability": "view",
      "type": "function"
    },
    {
      "inputs": [
        {
          "internalType": "address",
          "name": "from",
          "type": "address"
        },
        {
          "internalType": "address",
          "name": "to",
          "type": "address"
        },
        {
          "internalType": "uint256",
          "name": "tokenId",
          "type": "uint256"
        }
      ],
      "name": "transferFrom",
      "outputs": [],
      "stateMutability": "nonpayable",
      "type": "function"
    },
    {
      "inputs": [
        {
          "internalType": "address",
          "name": "newOwner",
          "type": "address"
        }
      ],
      "name": "transferOwnership",
      "outputs": [],
      "stateMutability": "nonpayable",
      "type": "function"
    }
  ],
  "bytecode": "0x60806040526032600d553480156200001657600080fd5b506040516200239638038062002396833981016040819052620000399162000262565b81518290829062000052906000906020850190620000ef565b50805162000068906001906020840190620000ef565b505050620000856200007f6200009960201b60201c565b6200009d565b62000090836200009d565b50505062000329565b3390565b600a80546001600160a01b038381166001600160a01b0319831681179093556040519116919082907f8be0079c531659141344cd1fd0a4f28419497f9722a3daafe3b4186f6b6457e090600090a35050565b828054620000fd90620002ec565b90600052602060002090601f0160209004810192826200012157600085556200016c565b82601f106200013c57805160ff19168380011785556200016c565b828001600101855582156200016c579182015b828111156200016c5782518255916020019190600101906200014f565b506200017a9291506200017e565b5090565b5b808211156200017a57600081556001016200017f565b634e487b7160e01b600052604160045260246000fd5b600082601f830112620001bd57600080fd5b81516001600160401b0380821115620001da57620001da62000195565b604051601f8301601f19908116603f0116810190828211818310171562000205576200020562000195565b816040528381526020925086838588010111156200022257600080fd5b600091505b8382101562000246578582018301518183018401529082019062000227565b83821115620002585760008385830101525b9695505050505050565b6000806000606084860312156200027857600080fd5b83516001600160a01b03811681146200029057600080fd5b60208501519093506001600160401b0380821115620002ae57600080fd5b620002bc87838801620001ab565b93506040860151915080821115620002d357600080fd5b50620002e286828701620001ab565b9150509250925092565b600181811c908216806200030157607f821691505b602082108114156200032357634e487b7160e01b600052602260045260246000fd5b50919050565b61205d80620003396000396000f3fe608060405234801561001057600080fd5b506004361061018e5760003560e01c80636c0360eb116100de578063a22cb46511610097578063e00dd16111610071578063e00dd16114610338578063e985e9c514610341578063f2fde38b1461037d578063f6a74ed71461039057600080fd5b8063a22cb465146102ff578063b88d4fde14610312578063c87b56dd1461032557600080fd5b80636c0360eb146102b057806370a08231146102b8578063715018a6146102cb5780638da5cb5b146102d357806392eefe9b146102e457806395d89b41146102f757600080fd5b8063248b71fc1161014b5780634f6ccce7116101255780634f6ccce71461026e57806355f804b3146102815780636352211e1461029457806367765b87146102a757600080fd5b8063248b71fc146102355780632f745c591461024857806342842e0e1461025b57600080fd5b806301ffc9a71461019357806306fdde03146101bb578063081812fc146101d0578063095ea7b3146101fb57806318160ddd1461021057806323b872dd14610222575b600080fd5b6101a66101a13660046119ad565b6103a3565b60405190151581526020015b60405180910390f35b6101c36103ce565b6040516101b29190611a22565b6101e36101de366004611a35565b610460565b6040516001600160a01b0390911681526020016101b2565b61020e610209366004611a6a565b6104fa565b005b6008545b6040519081526020016101b2565b61020e610230366004611a94565b610610565b61020e610243366004611a6a565b610641565b610214610256366004611a6a565b610720565b61020e610269366004611a94565b6107b6565b61021461027c366004611a35565b6107d1565b61020e61028f366004611b5c565b610864565b6101e36102a2366004611a35565b6108bf565b610214600d5481565b6101c3610936565b6102146102c6366004611ba5565b6109c4565b61020e610a4b565b600a546001600160a01b03166101e3565b61020e6102f2366004611ba5565b610ab1565b6101c3610b67565b61020e61030d366004611bc0565b610b76565b61020e610320366004611bfc565b610b81565b6101c3610333366004611a35565b610bb9565b610214600c5481565b6101a661034f366004611c78565b6001600160a01b03918216600090815260056020908152604080832093909416825291909152205460ff1690565b61020e61038b366004611ba5565b610cae565b61020e61039e366004611ba5565b610d79565b60006001600160e01b0319821663780e9d6360e01b14806103c857506103c882610e9e565b92915050565b6060600080546103dd90611cab565b80601f016020809104026020016040519081016040528092919081815260200182805461040990611cab565b80156104565780601f1061042b57610100808354040283529160200191610456565b820191906000526020600020905b81548152906001019060200180831161043957829003601f168201915b5050505050905090565b6000818152600260205260408120546001600160a01b03166104de5760405162461bcd60e51b815260206004820152602c60248201527f4552433732313a20617070726f76656420717565727920666f72206e6f6e657860448201526b34b9ba32b73a103a37b5b2b760a11b60648201526084015b60405180910390fd5b506000908152600460205260409020546001600160a01b031690565b6000610505826108bf565b9050806001600160a01b0316836001600160a01b031614156105735760405162461bcd60e51b815260206004820152602160248201527f4552433732313a20617070726f76616c20746f2063757272656e74206f776e656044820152603960f91b60648201526084016104d5565b336001600160a01b038216148061058f575061058f813361034f565b6106015760405162461bcd60e51b815260206004820152603860248201527f4552433732313a20617070726f76652063616c6c6572206973206e6f74206f7760448201527f6e6572206e6f7220617070726f76656420666f7220616c6c000000000000000060648201526084016104d5565b61060b8383610eee565b505050565b61061a3382610f5c565b6106365760405162461bcd60e51b81526004016104d590611ce6565b61060b838383611053565b600a546001600160a01b03163314806106695750336000908152600b602052604090205460ff165b6106855760405162461bcd60e51b81526004016104d590611d37565b6000811180156106975750600d548111155b6106e35760405162461bcd60e51b815260206004820152601d60248201527f6d757374206d696e7420666577657220696e206561636820626174636800000060448201526064016104d5565b600c5460005b8281101561071857610706846106fe84611d84565b9350836111fa565b8061071081611d84565b9150506106e9565b50600c555050565b600061072b836109c4565b821061078d5760405162461bcd60e51b815260206004820152602b60248201527f455243373231456e756d657261626c653a206f776e657220696e646578206f7560448201526a74206f6620626f756e647360a81b60648201526084016104d5565b506001600160a01b03919091166000908152600660209081526040808320938352929052205490565b61060b83838360405180602001604052806000815250610b81565b60006107dc60085490565b821061083f5760405162461bcd60e51b815260206004820152602c60248201527f455243373231456e756d657261626c653a20676c6f62616c20696e646578206f60448201526b7574206f6620626f756e647360a01b60648201526084016104d5565b6008828154811061085257610852611d9f565b90600052602060002001549050919050565b600a546001600160a01b031633148061088c5750336000908152600b602052604090205460ff165b6108a85760405162461bcd60e51b81526004016104d590611d37565b80516108bb90600e9060208401906118fe565b5050565b6000818152600260205260408120546001600160a01b0316806103c85760405162461bcd60e51b815260206004820152602960248201527f4552433732313a206f776e657220717565727920666f72206e6f6e657869737460448201526832b73a103a37b5b2b760b91b60648201526084016104d5565b600e805461094390611cab565b80601f016020809104026020016040519081016040528092919081815260200182805461096f90611cab565b80156109bc5780601f10610991576101008083540402835291602001916109bc565b820191906000526020600020905b81548152906001019060200180831161099f57829003601f168201915b505050505081565b60006001600160a01b038216610a2f5760405162461bcd60e51b815260206004820152602a60248201527f4552433732313a2062616c616e636520717565727920666f7220746865207a65604482015269726f206164647265737360b01b60648201526084016104d5565b506001600160a01b031660009081526003602052604090205490565b600a546001600160a01b03163314610aa55760405162461bcd60e51b815260206004820181905260248201527f4f776e61626c653a2063616c6c6572206973206e6f7420746865206f776e657260448201526064016104d5565b610aaf6000611348565b565b600a546001600160a01b0316331480610ad95750336000908152600b602052604090205460ff165b610af55760405162461bcd60e51b81526004016104d590611d37565b6001600160a01b038116610b1b5760405162461bcd60e51b81526004016104d590611db5565b6001600160a01b0381166000818152600b6020526040808220805460ff19166001179055517f4ff638452bbf33c012645d18ae6f05515ff5f2d1dfb0cece8cbf018c60903f709190a250565b6060600180546103dd90611cab565b6108bb33838361139a565b610b8b3383610f5c565b610ba75760405162461bcd60e51b81526004016104d590611ce6565b610bb384848484611469565b50505050565b6000818152600260205260409020546060906001600160a01b0316610c395760405162461bcd60e51b815260206004820152603060248201527f4552433732314d657461646174613a2055524920717565727920666f72206e6f60448201526f3732bc34b9ba32b73a103a37b5b2b71760811b60648201526084016104d5565b6000610c4361149c565b90506000815111610c7b57610c57836114ab565b604051602001610c679190611e14565b604051602081830303815290604052610ca7565b600e610c86846114ab565b604051602001610c97929190611e3d565b6040516020818303038152906040525b9392505050565b600a546001600160a01b03163314610d085760405162461bcd60e51b815260206004820181905260248201527f4f776e61626c653a2063616c6c6572206973206e6f7420746865206f776e657260448201526064016104d5565b6001600160a01b038116610d6d5760405162461bcd60e51b815260206004820152602660248201527f4f776e61626c653a206e6577206f776e657220697320746865207a65726f206160448201526564647265737360d01b60648201526084016104d5565b610d7681611348565b50565b600a546001600160a01b0316331480610da15750336000908152600b602052604090205460ff165b610dbd5760405162461bcd60e51b81526004016104d590611d37565b6001600160a01b038116610de35760405162461bcd60e51b81526004016104d590611db5565b6001600160a01b0381166000908152600b602052604090205460ff16610e555760405162461bcd60e51b815260206004820152602160248201527f476976656e2061646472657373206973206e6f74206120636f6e74726f6c6c656044820152603960f91b60648201526084016104d5565b6001600160a01b0381166000818152600b6020526040808220805460ff19169055517f7941d2d50d0c01f462ecc5f84c1ac990927fe1ddfd0c0f527f4b45b155f8566f9190a250565b60006001600160e01b031982166380ac58cd60e01b1480610ecf57506001600160e01b03198216635b5e139f60e01b145b806103c857506301ffc9a760e01b6001600160e01b03198316146103c8565b600081815260046020526040902080546001600160a01b0319166001600160a01b0384169081179091558190610f23826108bf565b6001600160a01b03167f8c5be1e5ebec7d5bd14f71427d1e84f3dd0314c0f7b2291e5b200ac8c7c3b92560405160405180910390a45050565b6000818152600260205260408120546001600160a01b0316610fd55760405162461bcd60e51b815260206004820152602c60248201527f4552433732313a206f70657261746f7220717565727920666f72206e6f6e657860448201526b34b9ba32b73a103a37b5b2b760a11b60648201526084016104d5565b6000610fe0836108bf565b9050806001600160a01b0316846001600160a01b0316148061101b5750836001600160a01b031661101084610460565b6001600160a01b0316145b8061104b57506001600160a01b0380821660009081526005602090815260408083209388168352929052205460ff165b949350505050565b826001600160a01b0316611066826108bf565b6001600160a01b0316146110ca5760405162461bcd60e51b815260206004820152602560248201527f4552433732313a207472616e736665722066726f6d20696e636f72726563742060448201526437bbb732b960d91b60648201526084016104d5565b6001600160a01b03821661112c5760405162461bcd60e51b8152602060048201526024808201527f4552433732313a207472616e7366657220746f20746865207a65726f206164646044820152637265737360e01b60648201526084016104d5565b6111378383836115a9565b611142600082610eee565b6001600160a01b038316600090815260036020526040812080546001929061116b908490611ef8565b90915550506001600160a01b0382166000908152600360205260408120805460019290611199908490611f0f565b909155505060008181526002602052604080822080546001600160a01b0319166001600160a01b0386811691821790925591518493918716917fddf252ad1be2c89b69c2b068fc378daa952ba7f163c4a11628f55a4df523b3ef91a4505050565b6001600160a01b0382166112505760405162461bcd60e51b815260206004820181905260248201527f4552433732313a206d696e7420746f20746865207a65726f206164647265737360448201526064016104d5565b6000818152600260205260409020546001600160a01b0316156112b55760405162461bcd60e51b815260206004820152601c60248201527f4552433732313a20746f6b656e20616c7265616479206d696e7465640000000060448201526064016104d5565b6112c1600083836115a9565b6001600160a01b03821660009081526003602052604081208054600192906112ea908490611f0f565b909155505060008181526002602052604080822080546001600160a01b0319166001600160a01b03861690811790915590518392907fddf252ad1be2c89b69c2b068fc378daa952ba7f163c4a11628f55a4df523b3ef908290a45050565b600a80546001600160a01b038381166001600160a01b0319831681179093556040519116919082907f8be0079c531659141344cd1fd0a4f28419497f9722a3daafe3b4186f6b6457e090600090a35050565b816001600160a01b0316836001600160a01b031614156113fc5760405162461bcd60e51b815260206004820152601960248201527f4552433732313a20617070726f766520746f2063616c6c65720000000000000060448201526064016104d5565b6001600160a01b03838116600081815260056020908152604080832094871680845294825291829020805460ff191686151590811790915591519182527f17307eab39ab6107e8899845ad3d59bd9653f200f220920489ca2b5937696c31910160405180910390a3505050565b611474848484611053565b61148084848484611661565b610bb35760405162461bcd60e51b81526004016104d590611f27565b6060600e80546103dd90611cab565b6060816114cf5750506040805180820190915260018152600360fc1b602082015290565b8160005b81156114f957806114e381611d84565b91506114f29050600a83611f8f565b91506114d3565b60008167ffffffffffffffff81111561151457611514611ad0565b6040519080825280601f01601f19166020018201604052801561153e576020820181803683370190505b5090505b841561104b57611553600183611ef8565b9150611560600a86611fa3565b61156b906030611f0f565b60f81b81838151811061158057611580611d9f565b60200101906001600160f81b031916908160001a9053506115a2600a86611f8f565b9450611542565b6001600160a01b038316611604576115ff81600880546000838152600960205260408120829055600182018355919091527ff3f7a9fe364faab93b216da50a3214154f22a0a2b415b23a84c8169e8b636ee30155565b611627565b816001600160a01b0316836001600160a01b03161461162757611627838261176e565b6001600160a01b03821661163e5761060b8161180b565b826001600160a01b0316826001600160a01b03161461060b5761060b82826118ba565b60006001600160a01b0384163b1561176357604051630a85bd0160e11b81526001600160a01b0385169063150b7a02906116a5903390899088908890600401611fb7565b602060405180830381600087803b1580156116bf57600080fd5b505af19250505080156116ef575060408051601f3d908101601f191682019092526116ec91810190611ff4565b60015b611749573d80801561171d576040519150601f19603f3d011682016040523d82523d6000602084013e611722565b606091505b5080516117415760405162461bcd60e51b81526004016104d590611f27565b805181602001fd5b6001600160e01b031916630a85bd0160e11b14905061104b565b506001949350505050565b6000600161177b846109c4565b6117859190611ef8565b6000838152600760205260409020549091508082146117d8576001600160a01b03841660009081526006602090815260408083208584528252808320548484528184208190558352600790915290208190555b5060009182526007602090815260408084208490556001600160a01b039094168352600681528383209183525290812055565b60085460009061181d90600190611ef8565b6000838152600960205260408120546008805493945090928490811061184557611845611d9f565b90600052602060002001549050806008838154811061186657611866611d9f565b600091825260208083209091019290925582815260099091526040808220849055858252812055600880548061189e5761189e612011565b6001900381819060005260206000200160009055905550505050565b60006118c5836109c4565b6001600160a01b039093166000908152600660209081526040808320868452825280832085905593825260079052919091209190915550565b82805461190a90611cab565b90600052602060002090601f01602090048101928261192c5760008555611972565b82601f1061194557805160ff1916838001178555611972565b82800160010185558215611972579182015b82811115611972578251825591602001919060010190611957565b5061197e929150611982565b5090565b5b8082111561197e5760008155600101611983565b6001600160e01b031981168114610d7657600080fd5b6000602082840312156119bf57600080fd5b8135610ca781611997565b60005b838110156119e55781810151838201526020016119cd565b83811115610bb35750506000910152565b60008151808452611a0e8160208601602086016119ca565b601f01601f19169290920160200192915050565b602081526000610ca760208301846119f6565b600060208284031215611a4757600080fd5b5035919050565b80356001600160a01b0381168114611a6557600080fd5b919050565b60008060408385031215611a7d57600080fd5b611a8683611a4e565b946020939093013593505050565b600080600060608486031215611aa957600080fd5b611ab284611a4e565b9250611ac060208501611a4e565b9150604084013590509250925092565b634e487b7160e01b600052604160045260246000fd5b600067ffffffffffffffff80841115611b0157611b01611ad0565b604051601f8501601f19908116603f01168101908282118183101715611b2957611b29611ad0565b81604052809350858152868686011115611b4257600080fd5b858560208301376000602087830101525050509392505050565b600060208284031215611b6e57600080fd5b813567ffffffffffffffff811115611b8557600080fd5b8201601f81018413611b9657600080fd5b61104b84823560208401611ae6565b600060208284031215611bb757600080fd5b610ca782611a4e565b60008060408385031215611bd357600080fd5b611bdc83611a4e565b915060208301358015158114611bf157600080fd5b809150509250929050565b60008060008060808587031215611c1257600080fd5b611c1b85611a4e565b9350611c2960208601611a4e565b925060408501359150606085013567ffffffffffffffff811115611c4c57600080fd5b8501601f81018713611c5d57600080fd5b611c6c87823560208401611ae6565b91505092959194509250565b60008060408385031215611c8b57600080fd5b611c9483611a4e565b9150611ca260208401611a4e565b90509250929050565b600181811c90821680611cbf57607f821691505b60208210811415611ce057634e487b7160e01b600052602260045260246000fd5b50919050565b60208082526031908201527f4552433732313a207472616e736665722063616c6c6572206973206e6f74206f6040820152701ddb995c881b9bdc88185c1c1c9bdd9959607a1b606082015260800190565b6020808252601f908201527f43616c6c6572206973206e6f74206f776e65722f636f6e74726f6c6c65722100604082015260600190565b634e487b7160e01b600052601160045260246000fd5b6000600019821415611d9857611d98611d6e565b5060010190565b634e487b7160e01b600052603260045260246000fd5b60208082526023908201527f4120636f6e74726f6c6c6572206d757374206e6f74206265206164647265737360408201526228302960e81b606082015260800190565b60008151611e0a8185602086016119ca565b9290920192915050565b60008251611e268184602087016119ca565b64173539b7b760d91b920191825250600501919050565b600080845481600182811c915080831680611e5957607f831692505b6020808410821415611e7957634e487b7160e01b86526022600452602486fd5b818015611e8d5760018114611e9e57611ecb565b60ff19861689528489019650611ecb565b60008b81526020902060005b86811015611ec35781548b820152908501908301611eaa565b505084890196505b505050505050611eef611ede8286611df8565b64173539b7b760d91b815260050190565b95945050505050565b600082821015611f0a57611f0a611d6e565b500390565b60008219821115611f2257611f22611d6e565b500190565b60208082526032908201527f4552433732313a207472616e7366657220746f206e6f6e20455243373231526560408201527131b2b4bb32b91034b6b83632b6b2b73a32b960711b606082015260800190565b634e487b7160e01b600052601260045260246000fd5b600082611f9e57611f9e611f79565b500490565b600082611fb257611fb2611f79565b500690565b6001600160a01b0385811682528416602082015260408101839052608060608201819052600090611fea908301846119f6565b9695505050505050565b60006020828403121561200657600080fd5b8151610ca781611997565b634e487b7160e01b600052603160045260246000fdfea26469706673582212206d7d443c96a53e4a0726529dcd4f4d5a36de68f32c6854a6d16330cb732d2f1e64736f6c63430008090033",
  "linkReferences": {},
  "deployedLinkReferences": {}
}