{
  "_format": "hh-sol-artifact-1",
  "contractName": "Sales",
  "sourceName": "contracts/Sales.sol",
  "abi": [
    {
      "anonymous": false,
      "inputs": [
        {
          "indexed": true,
          "internalType": "uint256",
          "name": "saleId",
          "type": "uint256"
        },
        {
          "components": [
            {
              "internalType": "uint256",
              "name": "id",
              "type": "uint256"
            },
            {
              "internalType": "address",
              "name": "tokenAddress",
              "type": "address"
            },
            {
              "internalType": "address",
              "name": "fundReceiver",
              "type": "address"
            },
            {
              "components": [
                {
                  "internalType": "uint256",
                  "name": "tokenId",
                  "type": "uint256"
                },
                {
                  "internalType": "uint256",
                  "name": "price",
                  "type": "uint256"
                },
                {
                  "internalType": "address",
                  "name": "buyer",
                  "type": "address"
                },
                {
                  "internalType": "enum Sales.ItemStatus",
                  "name": "status",
                  "type": "uint8"
                }
              ],
              "internalType": "struct Sales.SaleToken[]",
              "name": "saleTokens",
              "type": "tuple[]"
            },
            {
              "internalType": "enum Sales.Status",
              "name": "status",
              "type": "uint8"
            }
          ],
          "indexed": false,
          "internalType": "struct Sales.Sale",
          "name": "sale",
          "type": "tuple"
        }
      ],
      "name": "Canceled",
      "type": "event"
    },
    {
      "anonymous": false,
      "inputs": [
        {
          "indexed": true,
          "internalType": "uint256",
          "name": "saleId",
          "type": "uint256"
        },
        {
          "components": [
            {
              "internalType": "uint256",
              "name": "id",
              "type": "uint256"
            },
            {
              "internalType": "address",
              "name": "tokenAddress",
              "type": "address"
            },
            {
              "internalType": "address",
              "name": "fundReceiver",
              "type": "address"
            },
            {
              "components": [
                {
                  "internalType": "uint256",
                  "name": "tokenId",
                  "type": "uint256"
                },
                {
                  "internalType": "uint256",
                  "name": "price",
                  "type": "uint256"
                },
                {
                  "internalType": "address",
                  "name": "buyer",
                  "type": "address"
                },
                {
                  "internalType": "enum Sales.ItemStatus",
                  "name": "status",
                  "type": "uint8"
                }
              ],
              "internalType": "struct Sales.SaleToken[]",
              "name": "saleTokens",
              "type": "tuple[]"
            },
            {
              "internalType": "enum Sales.Status",
              "name": "status",
              "type": "uint8"
            }
          ],
          "indexed": false,
          "internalType": "struct Sales.Sale",
          "name": "sale",
          "type": "tuple"
        }
      ],
      "name": "Created",
      "type": "event"
    },
    {
      "anonymous": false,
      "inputs": [
        {
          "indexed": true,
          "internalType": "address",
          "name": "previousOwner",
          "type": "address"
        },
        {
          "indexed": true,
          "internalType": "address",
          "name": "newOwner",
          "type": "address"
        }
      ],
      "name": "OwnershipTransferred",
      "type": "event"
    },
    {
      "anonymous": false,
      "inputs": [
        {
          "indexed": true,
          "internalType": "uint256",
          "name": "saleId",
          "type": "uint256"
        },
        {
          "indexed": true,
          "internalType": "uint256",
          "name": "tokenId",
          "type": "uint256"
        },
        {
          "indexed": false,
          "internalType": "uint256",
          "name": "price",
          "type": "uint256"
        }
      ],
      "name": "Purchased",
      "type": "event"
    },
    {
      "anonymous": false,
      "inputs": [
        {
          "indexed": true,
          "internalType": "address",
          "name": "account",
          "type": "address"
        }
      ],
      "name": "RemovedController",
      "type": "event"
    },
    {
      "anonymous": false,
      "inputs": [
        {
          "indexed": true,
          "internalType": "address",
          "name": "account",
          "type": "address"
        }
      ],
      "name": "SetController",
      "type": "event"
    },
    {
      "anonymous": false,
      "inputs": [
        {
          "indexed": true,
          "internalType": "uint256",
          "name": "saleId",
          "type": "uint256"
        },
        {
          "components": [
            {
              "internalType": "uint256",
              "name": "id",
              "type": "uint256"
            },
            {
              "internalType": "address",
              "name": "tokenAddress",
              "type": "address"
            },
            {
              "internalType": "address",
              "name": "fundReceiver",
              "type": "address"
            },
            {
              "components": [
                {
                  "internalType": "uint256",
                  "name": "tokenId",
                  "type": "uint256"
                },
                {
                  "internalType": "uint256",
                  "name": "price",
                  "type": "uint256"
                },
                {
                  "internalType": "address",
                  "name": "buyer",
                  "type": "address"
                },
                {
                  "internalType": "enum Sales.ItemStatus",
                  "name": "status",
                  "type": "uint8"
                }
              ],
              "internalType": "struct Sales.SaleToken[]",
              "name": "saleTokens",
              "type": "tuple[]"
            },
            {
              "internalType": "enum Sales.Status",
              "name": "status",
              "type": "uint8"
            }
          ],
          "indexed": false,
          "internalType": "struct Sales.Sale",
          "name": "sale",
          "type": "tuple"
        }
      ],
      "name": "Updated",
      "type": "event"
    },
    {
      "inputs": [
        {
          "internalType": "uint256",
          "name": "_saleId",
          "type": "uint256"
        }
      ],
      "name": "cancelSale",
      "outputs": [],
      "stateMutability": "nonpayable",
      "type": "function"
    },
    {
      "inputs": [
        {
          "internalType": "uint256",
          "name": "_saleId",
          "type": "uint256"
        },
        {
          "internalType": "address",
          "name": "_tokenAddress",
          "type": "address"
        },
        {
          "components": [
            {
              "internalType": "uint256",
              "name": "tokenId",
              "type": "uint256"
            },
            {
              "internalType": "uint256",
              "name": "price",
              "type": "uint256"
            },
            {
              "internalType": "address",
              "name": "buyer",
              "type": "address"
            },
            {
              "internalType": "enum Sales.ItemStatus",
              "name": "status",
              "type": "uint8"
            }
          ],
          "internalType": "struct Sales.SaleToken[]",
          "name": "_saleTokens",
          "type": "tuple[]"
        },
        {
          "internalType": "address",
          "name": "_fundReceiver",
          "type": "address"
        }
      ],
      "name": "createOrUpdateSale",
      "outputs": [],
      "stateMutability": "nonpayable",
      "type": "function"
    },
    {
      "inputs": [],
      "name": "currentId",
      "outputs": [
        {
          "internalType": "uint256",
          "name": "",
          "type": "uint256"
        }
      ],
      "stateMutability": "view",
      "type": "function"
    },
    {
      "inputs": [
        {
          "internalType": "uint256",
          "name": "_saleId",
          "type": "uint256"
        }
      ],
      "name": "getSale",
      "outputs": [
        {
          "components": [
            {
              "internalType": "uint256",
              "name": "id",
              "type": "uint256"
            },
            {
              "internalType": "address",
              "name": "tokenAddress",
              "type": "address"
            },
            {
              "internalType": "address",
              "name": "fundReceiver",
              "type": "address"
            },
            {
              "components": [
                {
                  "internalType": "uint256",
                  "name": "tokenId",
                  "type": "uint256"
                },
                {
                  "internalType": "uint256",
                  "name": "price",
                  "type": "uint256"
                },
                {
                  "internalType": "address",
                  "name": "buyer",
                  "type": "address"
                },
                {
                  "internalType": "enum Sales.ItemStatus",
                  "name": "status",
                  "type": "uint8"
                }
              ],
              "internalType": "struct Sales.SaleToken[]",
              "name": "saleTokens",
              "type": "tuple[]"
            },
            {
              "internalType": "enum Sales.Status",
              "name": "status",
              "type": "uint8"
            }
          ],
          "internalType": "struct Sales.Sale",
          "name": "",
          "type": "tuple"
        }
      ],
      "stateMutability": "view",
      "type": "function"
    },
    {
      "inputs": [],
      "name": "initialize",
      "outputs": [],
      "stateMutability": "nonpayable",
      "type": "function"
    },
    {
      "inputs": [
        {
          "internalType": "address",
          "name": "",
          "type": "address"
        },
        {
          "internalType": "address",
          "name": "",
          "type": "address"
        },
        {
          "internalType": "uint256",
          "name": "",
          "type": "uint256"
        },
        {
          "internalType": "bytes",
          "name": "",
          "type": "bytes"
        }
      ],
      "name": "onERC721Received",
      "outputs": [
        {
          "internalType": "bytes4",
          "name": "",
          "type": "bytes4"
        }
      ],
      "stateMutability": "nonpayable",
      "type": "function"
    },
    {
      "inputs": [],
      "name": "owner",
      "outputs": [
        {
          "internalType": "address",
          "name": "",
          "type": "address"
        }
      ],
      "stateMutability": "view",
      "type": "function"
    },
    {
      "inputs": [
        {
          "internalType": "uint256",
          "name": "_saleId",
          "type": "uint256"
        },
        {
          "internalType": "uint256",
          "name": "_tokenId",
          "type": "uint256"
        }
      ],
      "name": "purchase",
      "outputs": [],
      "stateMutability": "payable",
      "type": "function"
    },
    {
      "inputs": [
        {
          "internalType": "address",
          "name": "_account",
          "type": "address"
        }
      ],
      "name": "removeController",
      "outputs": [],
      "stateMutability": "nonpayable",
      "type": "function"
    },
    {
      "inputs": [],
      "name": "renounceOwnership",
      "outputs": [],
      "stateMutability": "nonpayable",
      "type": "function"
    },
    {
      "inputs": [
        {
          "internalType": "address",
          "name": "_account",
          "type": "address"
        }
      ],
      "name": "setController",
      "outputs": [],
      "stateMutability": "nonpayable",
      "type": "function"
    },
    {
      "inputs": [
        {
          "internalType": "address",
          "name": "newOwner",
          "type": "address"
        }
      ],
      "name": "transferOwnership",
      "outputs": [],
      "stateMutability": "nonpayable",
      "type": "function"
    }
  ],
  "bytecode": "0x60806040523480156200001157600080fd5b5062000032620000266200003860201b60201c565b6200004060201b60201c565b62000105565b600033905090565b60008060029054906101000a900473ffffffffffffffffffffffffffffffffffffffff16905081600060026101000a81548173ffffffffffffffffffffffffffffffffffffffff021916908373ffffffffffffffffffffffffffffffffffffffff1602179055508173ffffffffffffffffffffffffffffffffffffffff168173ffffffffffffffffffffffffffffffffffffffff167f8be0079c531659141344cd1fd0a4f28419497f9722a3daafe3b4186f6b6457e060405160405180910390a35050565b61388680620001156000396000f3fe6080604052600436106100a75760003560e01c8063a57c3b8a11610064578063a57c3b8a14610187578063bd94b005146101b0578063d8f6d596146101d9578063e00dd16114610216578063f2fde38b14610241578063f6a74ed71461026a576100a7565b8063150b7a02146100ac57806370876c98146100e9578063715018a6146101055780638129fc1c1461011c5780638da5cb5b1461013357806392eefe9b1461015e575b600080fd5b3480156100b857600080fd5b506100d360048036038101906100ce919061248b565b610293565b6040516100e09190612549565b60405180910390f35b61010360048036038101906100fe9190612564565b6102a7565b005b34801561011157600080fd5b5061011a610930565b005b34801561012857600080fd5b506101316109b8565b005b34801561013f57600080fd5b50610148610a9c565b60405161015591906125b3565b60405180910390f35b34801561016a57600080fd5b50610185600480360381019061018091906125ce565b610ac5565b005b34801561019357600080fd5b506101ae60048036038101906101a99190612765565b610ca9565b005b3480156101bc57600080fd5b506101d760048036038101906101d291906127e8565b610cdb565b005b3480156101e557600080fd5b5061020060048036038101906101fb91906127e8565b610fec565b60405161020d9190612a6c565b60405180910390f35b34801561022257600080fd5b5061022b611263565b6040516102389190612a9d565b60405180910390f35b34801561024d57600080fd5b50610268600480360381019061026391906125ce565b611269565b005b34801561027657600080fd5b50610291600480360381019061028c91906125ce565b611361565b005b600063150b7a0260e01b9050949350505050565b818060001080156102ba57506002548111155b6102f9576040517f08c379a00000000000000000000000000000000000000000000000000000000081526004016102f090612b15565b60405180910390fd5b60006003600085815260200190815260200160002090506000806000905060005b836003018054905081101561037757858460030182815481106103405761033f612b35565b5b90600052602060002090600302016000015414156103645760019150809250610377565b808061036f90612b93565b91505061031a565b5080610382866115d2565b6040516020016103929190612cee565b604051602081830303815290604052906103e2576040517f08c379a00000000000000000000000000000000000000000000000000000000081526004016103d99190612d54565b60405180910390fd5b506001808111156103f6576103f561285f565b5b83600301838154811061040c5761040b612b35565b5b906000526020600020906003020160020160149054906101000a900460ff16600181111561043d5761043c61285f565b5b14610447866115d2565b6040516020016104579190612dc2565b604051602081830303815290604052906104a7576040517f08c379a000000000000000000000000000000000000000000000000000000000815260040161049e9190612d54565b60405180910390fd5b508260030182815481106104be576104bd612b35565b5b9060005260206000209060030201600101543414610511576040517f08c379a000000000000000000000000000000000000000000000000000000000815260040161050890612e3b565b60405180910390fd5b8260010160009054906101000a900473ffffffffffffffffffffffffffffffffffffffff1673ffffffffffffffffffffffffffffffffffffffff166342842e0e3061055a611733565b886040518463ffffffff1660e01b815260040161057993929190612e5b565b600060405180830381600087803b15801561059357600080fd5b505af11580156105a7573d6000803e3d6000fd5b505050508260020160009054906101000a900473ffffffffffffffffffffffffffffffffffffffff1673ffffffffffffffffffffffffffffffffffffffff166108fc349081150290604051600060405180830381858888f19350505050158015610615573d6000803e3d6000fd5b5061061e611733565b83600301838154811061063457610633612b35565b5b906000526020600020906003020160020160006101000a81548173ffffffffffffffffffffffffffffffffffffffff021916908373ffffffffffffffffffffffffffffffffffffffff1602179055508260030180549050610894846040518060a0016040529081600082015481526020016001820160009054906101000a900473ffffffffffffffffffffffffffffffffffffffff1673ffffffffffffffffffffffffffffffffffffffff1673ffffffffffffffffffffffffffffffffffffffff1681526020016002820160009054906101000a900473ffffffffffffffffffffffffffffffffffffffff1673ffffffffffffffffffffffffffffffffffffffff1673ffffffffffffffffffffffffffffffffffffffff16815260200160038201805480602002602001604051908101604052809291908181526020016000905b8282101561084c578382906000526020600020906003020160405180608001604052908160008201548152602001600182015481526020016002820160009054906101000a900473ffffffffffffffffffffffffffffffffffffffff1673ffffffffffffffffffffffffffffffffffffffff1673ffffffffffffffffffffffffffffffffffffffff1681526020016002820160149054906101000a900460ff1660018111156108275761082661285f565b5b60018111156108395761083861285f565b5b8152505081526020019060010190610775565b5050505081526020016004820160009054906101000a900460ff1660028111156108795761087861285f565b5b600281111561088b5761088a61285f565b5b8152505061173b565b14156108c85760028360040160006101000a81548160ff021916908360028111156108c2576108c161285f565b5b02179055505b84867fad29626521d76edaa4a50d4b77bb01050659c6cdb55765634518501f22c6010885600301858154811061090157610900612b35565b5b9060005260206000209060030201600101546040516109209190612a9d565b60405180910390a3505050505050565b610938611733565b73ffffffffffffffffffffffffffffffffffffffff16610956610a9c565b73ffffffffffffffffffffffffffffffffffffffff16146109ac576040517f08c379a00000000000000000000000000000000000000000000000000000000081526004016109a390612ede565b60405180910390fd5b6109b660006117d4565b565b600060019054906101000a900460ff166109e05760008054906101000a900460ff16156109e9565b6109e8611899565b5b610a28576040517f08c379a0000000000000000000000000000000000000000000000000000000008152600401610a1f90612f70565b60405180910390fd5b60008060019054906101000a900460ff161590508015610a78576001600060016101000a81548160ff02191690831515021790555060016000806101000a81548160ff0219169083151502179055505b8015610a995760008060016101000a81548160ff0219169083151502179055505b50565b60008060029054906101000a900473ffffffffffffffffffffffffffffffffffffffff16905090565b610acd610a9c565b73ffffffffffffffffffffffffffffffffffffffff16610aeb611733565b73ffffffffffffffffffffffffffffffffffffffff161480610b5d575060016000610b14611733565b73ffffffffffffffffffffffffffffffffffffffff1673ffffffffffffffffffffffffffffffffffffffff16815260200190815260200160002060009054906101000a900460ff165b610b9c576040517f08c379a0000000000000000000000000000000000000000000000000000000008152600401610b9390612fdc565b60405180910390fd5b600073ffffffffffffffffffffffffffffffffffffffff168173ffffffffffffffffffffffffffffffffffffffff161415610c0c576040517f08c379a0000000000000000000000000000000000000000000000000000000008152600401610c039061306e565b60405180910390fd5b60018060008373ffffffffffffffffffffffffffffffffffffffff1673ffffffffffffffffffffffffffffffffffffffff16815260200190815260200160002060006101000a81548160ff0219169083151502179055508073ffffffffffffffffffffffffffffffffffffffff167f4ff638452bbf33c012645d18ae6f05515ff5f2d1dfb0cece8cbf018c60903f7060405160405180910390a250565b6000841415610cc257610cbd8383836118aa565b610cd5565b610cd48483610ccf611733565b611d88565b5b50505050565b806004600082815260200190815260200160002060009054906101000a900473ffffffffffffffffffffffffffffffffffffffff1673ffffffffffffffffffffffffffffffffffffffff16610d2e611733565b73ffffffffffffffffffffffffffffffffffffffff1614610d84576040517f08c379a0000000000000000000000000000000000000000000000000000000008152600401610d7b90613100565b60405180910390fd5b81806000108015610d9757506002548111155b610dd6576040517f08c379a0000000000000000000000000000000000000000000000000000000008152600401610dcd90612b15565b60405180910390fd5b600060036000858152602001908152602001600020905060018160040160006101000a81548160ff02191690836002811115610e1557610e1461285f565b5b021790555060005b8160030180549050811015610fad57600073ffffffffffffffffffffffffffffffffffffffff16826003018281548110610e5a57610e59612b35565b5b906000526020600020906003020160020160009054906101000a900473ffffffffffffffffffffffffffffffffffffffff1673ffffffffffffffffffffffffffffffffffffffff161415610f9a578160010160009054906101000a900473ffffffffffffffffffffffffffffffffffffffff1673ffffffffffffffffffffffffffffffffffffffff166342842e0e30600460008660000154815260200190815260200160002060009054906101000a900473ffffffffffffffffffffffffffffffffffffffff16856003018581548110610f3757610f36612b35565b5b9060005260206000209060030201600001546040518463ffffffff1660e01b8152600401610f6793929190612e5b565b600060405180830381600087803b158015610f8157600080fd5b505af1158015610f95573d6000803e3d6000fd5b505050505b8080610fa590612b93565b915050610e1d565b50837f4e8d89ca337ae00a2dbf12ea032891c8884628ac8a5c6742b5bdfd1897aedbc482604051610fde91906133a7565b60405180910390a250505050565b610ff4612230565b8180600010801561100757506002548111155b611046576040517f08c379a000000000000000000000000000000000000000000000000000000000815260040161103d90612b15565b60405180910390fd5b6003600060025481526020019081526020016000206040518060a0016040529081600082015481526020016001820160009054906101000a900473ffffffffffffffffffffffffffffffffffffffff1673ffffffffffffffffffffffffffffffffffffffff1673ffffffffffffffffffffffffffffffffffffffff1681526020016002820160009054906101000a900473ffffffffffffffffffffffffffffffffffffffff1673ffffffffffffffffffffffffffffffffffffffff1673ffffffffffffffffffffffffffffffffffffffff16815260200160038201805480602002602001604051908101604052809291908181526020016000905b82821015611218578382906000526020600020906003020160405180608001604052908160008201548152602001600182015481526020016002820160009054906101000a900473ffffffffffffffffffffffffffffffffffffffff1673ffffffffffffffffffffffffffffffffffffffff1673ffffffffffffffffffffffffffffffffffffffff1681526020016002820160149054906101000a900460ff1660018111156111f3576111f261285f565b5b60018111156112055761120461285f565b5b8152505081526020019060010190611141565b5050505081526020016004820160009054906101000a900460ff1660028111156112455761124461285f565b5b60028111156112575761125661285f565b5b81525050915050919050565b60025481565b611271611733565b73ffffffffffffffffffffffffffffffffffffffff1661128f610a9c565b73ffffffffffffffffffffffffffffffffffffffff16146112e5576040517f08c379a00000000000000000000000000000000000000000000000000000000081526004016112dc90612ede565b60405180910390fd5b600073ffffffffffffffffffffffffffffffffffffffff168173ffffffffffffffffffffffffffffffffffffffff161415611355576040517f08c379a000000000000000000000000000000000000000000000000000000000815260040161134c9061343b565b60405180910390fd5b61135e816117d4565b50565b611369610a9c565b73ffffffffffffffffffffffffffffffffffffffff16611387611733565b73ffffffffffffffffffffffffffffffffffffffff1614806113f95750600160006113b0611733565b73ffffffffffffffffffffffffffffffffffffffff1673ffffffffffffffffffffffffffffffffffffffff16815260200190815260200160002060009054906101000a900460ff165b611438576040517f08c379a000000000000000000000000000000000000000000000000000000000815260040161142f90612fdc565b60405180910390fd5b600073ffffffffffffffffffffffffffffffffffffffff168173ffffffffffffffffffffffffffffffffffffffff1614156114a8576040517f08c379a000000000000000000000000000000000000000000000000000000000815260040161149f9061306e565b60405180910390fd5b600160008273ffffffffffffffffffffffffffffffffffffffff1673ffffffffffffffffffffffffffffffffffffffff16815260200190815260200160002060009054906101000a900460ff16611534576040517f08c379a000000000000000000000000000000000000000000000000000000000815260040161152b906134cd565b60405180910390fd5b6000600160008373ffffffffffffffffffffffffffffffffffffffff1673ffffffffffffffffffffffffffffffffffffffff16815260200190815260200160002060006101000a81548160ff0219169083151502179055508073ffffffffffffffffffffffffffffffffffffffff167f7941d2d50d0c01f462ecc5f84c1ac990927fe1ddfd0c0f527f4b45b155f8566f60405160405180910390a250565b6060600082141561161a576040518060400160405280600181526020017f3000000000000000000000000000000000000000000000000000000000000000815250905061172e565b600082905060005b6000821461164c57808061163590612b93565b915050600a82611645919061351c565b9150611622565b60008167ffffffffffffffff81111561166857611667612360565b5b6040519080825280601f01601f19166020018201604052801561169a5781602001600182028036833780820191505090505b5090505b60008514611727576001826116b3919061354d565b9150600a856116c29190613581565b60306116ce91906135b2565b60f81b8183815181106116e4576116e3612b35565b5b60200101907effffffffffffffffffffffffffffffffffffffffffffffffffffffffffffff1916908160001a905350600a85611720919061351c565b945061169e565b8093505050505b919050565b600033905090565b6000806000905060005b8360600151518110156117ca57600073ffffffffffffffffffffffffffffffffffffffff168460600151828151811061178157611780612b35565b5b60200260200101516040015173ffffffffffffffffffffffffffffffffffffffff16146117b75781806117b390612b93565b9250505b80806117c290612b93565b915050611745565b5080915050919050565b60008060029054906101000a900473ffffffffffffffffffffffffffffffffffffffff16905081600060026101000a81548173ffffffffffffffffffffffffffffffffffffffff021916908373ffffffffffffffffffffffffffffffffffffffff1602179055508173ffffffffffffffffffffffffffffffffffffffff168173ffffffffffffffffffffffffffffffffffffffff167f8be0079c531659141344cd1fd0a4f28419497f9722a3daafe3b4186f6b6457e060405160405180910390a35050565b60006118a43061220d565b15905090565b600073ffffffffffffffffffffffffffffffffffffffff168373ffffffffffffffffffffffffffffffffffffffff16141561191a576040517f08c379a00000000000000000000000000000000000000000000000000000000081526004016119119061367a565b60405180910390fd5b600073ffffffffffffffffffffffffffffffffffffffff168173ffffffffffffffffffffffffffffffffffffffff16141561198a576040517f08c379a00000000000000000000000000000000000000000000000000000000081526004016119819061370c565b60405180910390fd5b60008251116119ce576040517f08c379a00000000000000000000000000000000000000000000000000000000081526004016119c59061379e565b60405180910390fd5b60005b8251811015611a81578373ffffffffffffffffffffffffffffffffffffffff166342842e0e6119fe611733565b30868581518110611a1257611a11612b35565b5b6020026020010151600001516040518463ffffffff1660e01b8152600401611a3c93929190612e5b565b600060405180830381600087803b158015611a5657600080fd5b505af1158015611a6a573d6000803e3d6000fd5b505050508080611a7990612b93565b9150506119d1565b50600060036000600260008154611a9790612b93565b919050819055815260200190815260200160002090506002548160000181905550838160010160006101000a81548173ffffffffffffffffffffffffffffffffffffffff021916908373ffffffffffffffffffffffffffffffffffffffff160217905550818160020160006101000a81548173ffffffffffffffffffffffffffffffffffffffff021916908373ffffffffffffffffffffffffffffffffffffffff16021790555060005b8351811015611cbb57816003016040518060800160405280868481518110611b6c57611b6b612b35565b5b6020026020010151600001518152602001868481518110611b9057611b8f612b35565b5b6020026020010151602001518152602001600073ffffffffffffffffffffffffffffffffffffffff168152602001868481518110611bd157611bd0612b35565b5b6020026020010151606001516001811115611bef57611bee61285f565b5b8152509080600181540180825580915050600190039060005260206000209060030201600090919091909150600082015181600001556020820151816001015560408201518160020160006101000a81548173ffffffffffffffffffffffffffffffffffffffff021916908373ffffffffffffffffffffffffffffffffffffffff16021790555060608201518160020160146101000a81548160ff02191690836001811115611ca157611ca061285f565b5b021790555050508080611cb390612b93565b915050611b41565b5060008160040160006101000a81548160ff02191690836002811115611ce457611ce361285f565b5b0217905550611cf1611733565b600460008360000154815260200190815260200160002060006101000a81548173ffffffffffffffffffffffffffffffffffffffff021916908373ffffffffffffffffffffffffffffffffffffffff16021790555080600001547f45a71962a641d12a121987cc2dd34f3bd2a5bf233c88ddb16d884df1ad66118e82604051611d7a91906133a7565b60405180910390a250505050565b82806000108015611d9b57506002548111155b611dda576040517f08c379a0000000000000000000000000000000000000000000000000000000008152600401611dd190612b15565b60405180910390fd5b6004600085815260200190815260200160002060009054906101000a900473ffffffffffffffffffffffffffffffffffffffff1673ffffffffffffffffffffffffffffffffffffffff168273ffffffffffffffffffffffffffffffffffffffff1614611e7b576040517f08c379a0000000000000000000000000000000000000000000000000000000008152600401611e7290613830565b60405180910390fd5b60006003600086815260200190815260200160002090506000805b85518110156121c55760005b83600301805490508110156121b157836003018181548110611ec757611ec6612b35565b5b906000526020600020906003020160000154878381518110611eec57611eeb612b35565b5b602002602001015160000151141561203b57600073ffffffffffffffffffffffffffffffffffffffff16846003018281548110611f2c57611f2b612b35565b5b906000526020600020906003020160020160009054906101000a900473ffffffffffffffffffffffffffffffffffffffff1673ffffffffffffffffffffffffffffffffffffffff16141561203657868281518110611f8d57611f8c612b35565b5b602002602001015160200151846003018281548110611faf57611fae612b35565b5b906000526020600020906003020160010181905550868281518110611fd757611fd6612b35565b5b602002602001015160600151846003018281548110611ff957611ff8612b35565b5b906000526020600020906003020160020160146101000a81548160ff0219169083600181111561202c5761202b61285f565b5b0217905550600192505b61219e565b83600301604051806080016040528089858151811061205d5761205c612b35565b5b602002602001015160000151815260200189858151811061208157612080612b35565b5b6020026020010151602001518152602001600073ffffffffffffffffffffffffffffffffffffffff1681526020018985815181106120c2576120c1612b35565b5b60200260200101516060015160018111156120e0576120df61285f565b5b8152509080600181540180825580915050600190039060005260206000209060030201600090919091909150600082015181600001556020820151816001015560408201518160020160006101000a81548173ffffffffffffffffffffffffffffffffffffffff021916908373ffffffffffffffffffffffffffffffffffffffff16021790555060608201518160020160146101000a81548160ff021916908360018111156121925761219161285f565b5b02179055505050600192505b80806121a990612b93565b915050611ea2565b5080806121bd90612b93565b915050611e96565b50801561220557857f16d56af8bee5234d8bf4f0ee8f6bbc53fa8de4ea6970c49bebd7ef0303046c0d836040516121fc91906133a7565b60405180910390a25b505050505050565b6000808273ffffffffffffffffffffffffffffffffffffffff163b119050919050565b6040518060a0016040528060008152602001600073ffffffffffffffffffffffffffffffffffffffff168152602001600073ffffffffffffffffffffffffffffffffffffffff16815260200160608152602001600060028111156122975761229661285f565b5b81525090565b6000604051905090565b600080fd5b600080fd5b600073ffffffffffffffffffffffffffffffffffffffff82169050919050565b60006122dc826122b1565b9050919050565b6122ec816122d1565b81146122f757600080fd5b50565b600081359050612309816122e3565b92915050565b6000819050919050565b6123228161230f565b811461232d57600080fd5b50565b60008135905061233f81612319565b92915050565b600080fd5b600080fd5b6000601f19601f8301169050919050565b7f4e487b7100000000000000000000000000000000000000000000000000000000600052604160045260246000fd5b6123988261234f565b810181811067ffffffffffffffff821117156123b7576123b6612360565b5b80604052505050565b60006123ca61229d565b90506123d6828261238f565b919050565b600067ffffffffffffffff8211156123f6576123f5612360565b5b6123ff8261234f565b9050602081019050919050565b82818337600083830152505050565b600061242e612429846123db565b6123c0565b90508281526020810184848401111561244a5761244961234a565b5b61245584828561240c565b509392505050565b600082601f83011261247257612471612345565b5b813561248284826020860161241b565b91505092915050565b600080600080608085870312156124a5576124a46122a7565b5b60006124b3878288016122fa565b94505060206124c4878288016122fa565b93505060406124d587828801612330565b925050606085013567ffffffffffffffff8111156124f6576124f56122ac565b5b6125028782880161245d565b91505092959194509250565b60007fffffffff0000000000000000000000000000000000000000000000000000000082169050919050565b6125438161250e565b82525050565b600060208201905061255e600083018461253a565b92915050565b6000806040838503121561257b5761257a6122a7565b5b600061258985828601612330565b925050602061259a85828601612330565b9150509250929050565b6125ad816122d1565b82525050565b60006020820190506125c860008301846125a4565b92915050565b6000602082840312156125e4576125e36122a7565b5b60006125f2848285016122fa565b91505092915050565b600067ffffffffffffffff82111561261657612615612360565b5b602082029050602081019050919050565b600080fd5b600080fd5b6002811061263e57600080fd5b50565b60008135905061265081612631565b92915050565b60006080828403121561266c5761266b61262c565b5b61267660806123c0565b9050600061268684828501612330565b600083015250602061269a84828501612330565b60208301525060406126ae848285016122fa565b60408301525060606126c284828501612641565b60608301525092915050565b60006126e16126dc846125fb565b6123c0565b9050808382526020820190506080840283018581111561270457612703612627565b5b835b8181101561272d57806127198882612656565b845260208401935050608081019050612706565b5050509392505050565b600082601f83011261274c5761274b612345565b5b813561275c8482602086016126ce565b91505092915050565b6000806000806080858703121561277f5761277e6122a7565b5b600061278d87828801612330565b945050602061279e878288016122fa565b935050604085013567ffffffffffffffff8111156127bf576127be6122ac565b5b6127cb87828801612737565b92505060606127dc878288016122fa565b91505092959194509250565b6000602082840312156127fe576127fd6122a7565b5b600061280c84828501612330565b91505092915050565b61281e8161230f565b82525050565b61282d816122d1565b82525050565b600081519050919050565b600082825260208201905092915050565b6000819050602082019050919050565b7f4e487b7100000000000000000000000000000000000000000000000000000000600052602160045260246000fd5b6002811061289f5761289e61285f565b5b50565b60008190506128b08261288e565b919050565b60006128c0826128a2565b9050919050565b6128d0816128b5565b82525050565b6080820160008201516128ec6000850182612815565b5060208201516128ff6020850182612815565b5060408201516129126040850182612824565b50606082015161292560608501826128c7565b50505050565b600061293783836128d6565b60808301905092915050565b6000602082019050919050565b600061295b82612833565b612965818561283e565b93506129708361284f565b8060005b838110156129a1578151612988888261292b565b975061299383612943565b925050600181019050612974565b5085935050505092915050565b600381106129bf576129be61285f565b5b50565b60008190506129d0826129ae565b919050565b60006129e0826129c2565b9050919050565b6129f0816129d5565b82525050565b600060a083016000830151612a0e6000860182612815565b506020830151612a216020860182612824565b506040830151612a346040860182612824565b5060608301518482036060860152612a4c8282612950565b9150506080830151612a6160808601826129e7565b508091505092915050565b60006020820190508181036000830152612a8681846129f6565b905092915050565b612a978161230f565b82525050565b6000602082019050612ab26000830184612a8e565b92915050565b600082825260208201905092915050565b7f53616c6520646f6573206e6f7420657869737421000000000000000000000000600082015250565b6000612aff601483612ab8565b9150612b0a82612ac9565b602082019050919050565b60006020820190508181036000830152612b2e81612af2565b9050919050565b7f4e487b7100000000000000000000000000000000000000000000000000000000600052603260045260246000fd5b7f4e487b7100000000000000000000000000000000000000000000000000000000600052601160045260246000fd5b6000612b9e8261230f565b91507fffffffffffffffffffffffffffffffffffffffffffffffffffffffffffffffff821415612bd157612bd0612b64565b5b600182019050919050565b600081905092915050565b7f546f6b656e496420000000000000000000000000000000000000000000000000600082015250565b6000612c1d600883612bdc565b9150612c2882612be7565b600882019050919050565b600081519050919050565b60005b83811015612c5c578082015181840152602081019050612c41565b83811115612c6b576000848401525b50505050565b6000612c7c82612c33565b612c868185612bdc565b9350612c96818560208601612c3e565b80840191505092915050565b7f20646f6573206e6f742065786973742100000000000000000000000000000000600082015250565b6000612cd8601083612bdc565b9150612ce382612ca2565b601082019050919050565b6000612cf982612c10565b9150612d058284612c71565b9150612d1082612ccb565b915081905092915050565b6000612d2682612c33565b612d308185612ab8565b9350612d40818560208601612c3e565b612d498161234f565b840191505092915050565b60006020820190508181036000830152612d6e8184612d1b565b905092915050565b7f2069732063757272656e746c79206e6f7420666f722073616c65210000000000600082015250565b6000612dac601b83612bdc565b9150612db782612d76565b601b82019050919050565b6000612dcd82612c10565b9150612dd98284612c71565b9150612de482612d9f565b915081905092915050565b7f496e636f7272656374207472616e7366657272656420616d6f756e7421000000600082015250565b6000612e25601d83612ab8565b9150612e3082612def565b602082019050919050565b60006020820190508181036000830152612e5481612e18565b9050919050565b6000606082019050612e7060008301866125a4565b612e7d60208301856125a4565b612e8a6040830184612a8e565b949350505050565b7f4f776e61626c653a2063616c6c6572206973206e6f7420746865206f776e6572600082015250565b6000612ec8602083612ab8565b9150612ed382612e92565b602082019050919050565b60006020820190508181036000830152612ef781612ebb565b9050919050565b7f496e697469616c697a61626c653a20636f6e747261637420697320616c72656160008201527f647920696e697469616c697a6564000000000000000000000000000000000000602082015250565b6000612f5a602e83612ab8565b9150612f6582612efe565b604082019050919050565b60006020820190508181036000830152612f8981612f4d565b9050919050565b7f43616c6c6572206973206e6f74206f776e65722f636f6e74726f6c6c65722100600082015250565b6000612fc6601f83612ab8565b9150612fd182612f90565b602082019050919050565b60006020820190508181036000830152612ff581612fb9565b9050919050565b7f4120636f6e74726f6c6c6572206d757374206e6f74206265206164647265737360008201527f2830290000000000000000000000000000000000000000000000000000000000602082015250565b6000613058602383612ab8565b915061306382612ffc565b604082019050919050565b600060208201905081810360008301526130878161304b565b9050919050565b7f43616c6c6572206d75737420626520746865206d616e61676572206f6620746860008201527f69732073616c6521000000000000000000000000000000000000000000000000602082015250565b60006130ea602883612ab8565b91506130f58261308e565b604082019050919050565b60006020820190508181036000830152613119816130dd565b9050919050565b60008160001c9050919050565b6000819050919050565b600061314a61314583613120565b61312d565b9050919050565b600073ffffffffffffffffffffffffffffffffffffffff82169050919050565b600061318461317f83613120565b613151565b9050919050565b600081549050919050565b60008190508160005260206000209050919050565b60008160a01c9050919050565b600060ff82169050919050565b60006131d86131d3836131ab565b6131b8565b9050919050565b6080820160008083015490506131f481613137565b6132016000860182612815565b506001830154905061321281613137565b61321f6020860182612815565b506002830154905061323081613171565b61323d6040860182612824565b50613247816131c5565b61325460608601826128c7565b5050505050565b600061326783836131df565b60808301905092915050565b6000600382019050919050565b600061328b8261318b565b613295818561283e565b93506132a083613196565b8060005b838110156132d057816132b7888261325b565b97506132c283613273565b9250506001810190506132a4565b5085935050505092915050565b600060ff82169050919050565b60006132fd6132f883613120565b6132dd565b9050919050565b600060a08301600080840154905061331b81613137565b6133286000870182612815565b506001840154905061333981613171565b6133466020870182612824565b506002840154905061335781613171565b6133646040870182612824565b5060038401858303606087015261337b8382613280565b9250506004840154905061338e816132ea565b61339b60808701826129e7565b50819250505092915050565b600060208201905081810360008301526133c18184613304565b905092915050565b7f4f776e61626c653a206e6577206f776e657220697320746865207a65726f206160008201527f6464726573730000000000000000000000000000000000000000000000000000602082015250565b6000613425602683612ab8565b9150613430826133c9565b604082019050919050565b6000602082019050818103600083015261345481613418565b9050919050565b7f476976656e2061646472657373206973206e6f74206120636f6e74726f6c6c6560008201527f7200000000000000000000000000000000000000000000000000000000000000602082015250565b60006134b7602183612ab8565b91506134c28261345b565b604082019050919050565b600060208201905081810360008301526134e6816134aa565b9050919050565b7f4e487b7100000000000000000000000000000000000000000000000000000000600052601260045260246000fd5b60006135278261230f565b91506135328361230f565b925082613542576135416134ed565b5b828204905092915050565b60006135588261230f565b91506135638361230f565b92508282101561357657613575612b64565b5b828203905092915050565b600061358c8261230f565b91506135978361230f565b9250826135a7576135a66134ed565b5b828206905092915050565b60006135bd8261230f565b91506135c88361230f565b9250827fffffffffffffffffffffffffffffffffffffffffffffffffffffffffffffffff038211156135fd576135fc612b64565b5b828201905092915050565b7f546f6b656e2061646472657373206d757374206e6f742062652061646472657360008201527f7328302921000000000000000000000000000000000000000000000000000000602082015250565b6000613664602583612ab8565b915061366f82613608565b604082019050919050565b6000602082019050818103600083015261369381613657565b9050919050565b7f46756e64207265636569766572206d757374206e6f742062652061646472657360008201527f7328302921000000000000000000000000000000000000000000000000000000602082015250565b60006136f6602583612ab8565b91506137018261369a565b604082019050919050565b60006020820190508181036000830152613725816136e9565b9050919050565b7f4c697374206f6620746f6b656e73206f6e2073616c65206d757374206e6f742060008201527f626520656d707479210000000000000000000000000000000000000000000000602082015250565b6000613788602983612ab8565b91506137938261372c565b604082019050919050565b600060208201905081810360008301526137b78161377b565b9050919050565b7f43616c6c6572206d757374206265207468652073616c652773206d616e61676560008201527f7221000000000000000000000000000000000000000000000000000000000000602082015250565b600061381a602283612ab8565b9150613825826137be565b604082019050919050565b600060208201905081810360008301526138498161380d565b905091905056fea2646970667358221220bb8962181b2f2f0a81f3a55b28fae295722b193407ba495cda69c5290ff457ab64736f6c63430008090033",
  "linkReferences": {},
  "deployedLinkReferences": {}
}